:020000040800F2
:10000000A8070020CD010008DF050008D70500087B
:10001000DB050008550300081D1000080000000063
:10002000000000000000000000000000390C000883
:100030005903000800000000AB0600084D0D000841
:10004000E7010008E7010008E7010008E7010008F0
:10005000E7010008E7010008E7010008E7010008E0
:10006000E7010008E7010008E7010008E7010008D0
:10007000E7010008E7010008E7010008E7010008C0
:10008000E7010008E7010008E7010008E7010008B0
:10009000E7010008E7010008E70100085D03000828
:1000A000E7010008E7010008E7010008E701000890
:1000B000E7010008E7010008E7010008E701000880
:1000C000E7010008E7010008E7010008E701000870
:1000D000E7010008B10D0008E7010008E70100088A
:1000E000E7010008E7010008E7010008E701000850
:1000F000E7010008E7010008E7010008E701000840
:10010000E7010008E7010008E7010008E70100082F
:10011000E7010008E7010008E7010008E70100081F
:10012000E7010008E7010008E7010008E70100080F
:1001300000F002F800F03AF80AA090E8000C8244BF
:100140008344AAF10107DA4501D100F02FF8AFF29C
:10015000090EBAE80F0013F0010F18BFFB1A43F0A5
:100160000103184798120000B8120000103A24BF8B
:1001700078C878C1FAD8520724BF30C830C144BF0C
:1001800004680C607047000000230024002500264E
:10019000103A28BF78C1FBD8520728BF30C148BFEA
:1001A0000B6070471FB51FBD10B510BD00F08EF875
:1001B0001146FFF7F7FF00F067FF00F0C0F803B447
:1001C000FFF7F2FF03BC00F02BFF00000948804757
:1001D00009480047FEE7FEE7FEE7FEE7FEE7FEE729
:1001E000FEE7FEE7FEE7FEE704480549054A064B41
:1001F00070470000510D000831010008A8010020DF
:10020000A8070020A8030020A803002070470000D2
:100210000FB4044910B503AA029800F029F810BCE5
:100220005DF814FB1C00002010B5431C02E010F820
:10023000011B71B18107FAD14FF0013202C88C1A4B
:100240008C4314EAC211F9D0C01A0A0603D0C01EAA
:1002500010BDC01A10BD0A0401D0801E10BD0902D5
:10026000FCD0401E10BD70477047704770470000BB
:10027000074B70B50D467B4400F011F80446284644
:1002800000F020F810B14FF0FF3070BD204670BD77
:10029000F30D000001694A1C02610878704700B53F
:1002A0008FB0CDE901310021059105497944CDE9AF
:1002B00003101146684600F02EF80FB000BD000094
:1002C000E5FFFFFF007B00F080007047754600F0FF
:1002D0003DF8AE4605006946534620F007008546C6
:1002E00018B020B5FFF780FFBDE820404FF00006B2
:1002F0004FF000074FF000084FF0000B21F007010E
:10030000AC46ACE8C009ACE8C009ACE8C009ACE850
:10031000C0098D4670472DE9F04106460024D6E914
:100320000170F5688046304603E04146B847641CDA
:100330003046A8470028F8D12046BDE8F0810446A1
:10034000AFF300802046FFF73AFF000000487047F7
:100350004401002000BFFEE77047000010B54FF4D5
:10036000007000F025F838B101200B4908700B49E6
:100370000870400200F016F84FF4807000F018F892
:1003800048B10120064908700020034908704FF465
:10039000807000F007F810BD200000202100002030
:1003A0002200002001490860704700001404014049
:1003B000014600200022074B1B6803EA0102054B9F
:1003C00014331B680B4013B10AB1012000E0002078
:1003D0007047000000040140002123498279002A6F
:1003E0003AD00A46126803689A430B461A600A1DFF
:1003F000126803689A430B1D1A60027911440A6857
:1004000003681A430A60184A0832126803689A435C
:10041000154B08331A601A1D126803689A43124B71
:100420000C331A604279102A0ED11A1F1268036821
:100430001A430D4B08331A601A1D126803681A43D9
:10044000094B0C331A600DE00749427911440A68E0
:1004500003681A430A6005E0027911440A680368D8
:100460009A430A60704700000004014010B500F094
:1004700067F900F01DFA10BD30B500228B071C0F84
:100480000F2303FA04F20B4B8C1053F824309343E0
:10049000084C8D1044F8253023468C1053F8243036
:1004A0008C07240F00FA04F42343024C8D1044F807
:1004B000253030BD080001402DE9F04102460025FD
:1004C0000026002000230024002791F803C00CF030
:1004D0000F0591F803C00CF0100CBCF1000F03D015
:1004E00091F802C04CEA050591F800C0BCF1000F7C
:1004F00031D0146800202BE04FF0010C0CFA00F30F
:10050000B1F800C00CEA03069E4220D183004FF0F0
:100510000F0C0CFA03F7BC4305FA03FC4CEA040485
:1005200091F803C0BCF1280F06D14FF0010C0CFA72
:1005300000FCC2F814C00AE091F803C0BCF1480FF7
:1005400005D14FF0010C0CFA00FCC2F810C0401CA1
:100550000828D1D31460B1F800C0BCF1FF0F34DD1E
:10056000546800202EE000F1080C4FF0010808FA52
:100570000CF3B1F800C00CEA03069E4221D18300BF
:100580004FF00F0C0CFA03F7BC4305FA03FC4CEADE
:10059000040491F803C0BCF1280F05D100F1080C48
:1005A00008FA0CF8C2F8148091F803C0BCF1480FA7
:1005B00007D100F1080C4FF0010808FA0CF8C2F856
:1005C0001080401C0828CED35460BDE8F081416102
:1005D00070470161704700BFFEE700BFFEE770474C
:1005E00070B5002100230F22C47804B3154C246891
:1005F00004F4E064C4F5E064210AC1F10403CA40D4
:10060000447804FA03F184781440214309010E4C24
:100610000678A155047804F01F050124AC40057844
:100620006D11AD0005F1E025C5F8004109E0047841
:1006300004F01F050124AC40044D0678761145F8FE
:10064000264070BD0CED00E000E400E080E100E039
:1006500002490143024A1160704700000000FA0598
:100660000CED00E008B54FF4A060FFF7F1FF172094
:100670008DF8000000208DF801008DF802000120A7
:100680008DF803006846FFF7ABFF25208DF80000CA
:1006900002208DF8010000208DF8020001208DF865
:1006A00003006846FFF79CFF08BD70472DE9F0473F
:1006B00007464FF000093846FFF7B6FD00F0FF0986
:1006C000C9F10C0000F0FF0A4FF0000818E0002507
:1006D0000FE038782038C0EBC00016490844405D70
:1006E00008EB0A01C1EBC101134A11444855681CCB
:1006F000C5B2072DEDDB7F1C08F1010000F0FF08FB
:10070000C845E4DB002410E000260BE0C6EBC60081
:1007100009490844005D04EB4401084A02EB8101E9
:100720008855761C0C2EF1DB641C072CECDBBDE835
:10073000F08700005C110008EE0000209A00002005
:100740000EB50121192000F0FDF902208DF80A00F4
:1007500010208DF80B000820ADF8080002A95248BF
:10076000FFF7AAFE02208DF80A0010208DF80B007A
:100770000420ADF8080002A94B48FFF79DFE0220B7
:100780008DF80A0010208DF80B000220ADF808004B
:1007900002A94548FFF790FE02208DF80A001020BC
:1007A0008DF80B000120ADF8080002A93E48FFF7C4
:1007B00083FE02208DF80A0010208DF80B008002C5
:1007C000ADF8080002A93948FFF776FE4FF48041E2
:1007D0003648FFF7FEFE02208DF80A0010208DF843
:1007E0000B00C002ADF8080002A93048FFF764FE14
:1007F0004FF400412D48FFF7ECFE03208DF80A006E
:1008000010208DF80B00ADF8080002A92648FFF76C
:1008100053FE03208DF80A0004208DF80B00C00160
:10082000ADF8080002A92148FFF746FE00208DF828
:1008300004004FF40070009010208DF80500012096
:100840008DF806006846FFF7C7FD09210120FFF774
:1008500013FE4FF40070FFF7A5FD03208DF80A008A
:1008600048208DF80B004FF48070ADF8080002A905
:100870000E48FFF721FE00208DF804004FF4807031
:1008800000900C208DF8050001208DF806006846C8
:10089000FFF7A2FD08210120FFF7EEFD4FF4807065
:1008A000FFF780FD0EBD000000100140000C01406C
:1008B00000200249487008700871704790000020BD
:1008C00010B5052492480078B8B108219148FFF787
:1008D0007EFE04218F48FFF77AFE02218D48FFF744
:1008E00076FE01218B48FFF772FE002088490870D0
:1008F00089480079401C884908718848007890B17F
:1009000000208649087084488079401C824988719B
:100910000020087148718249087082490870824934
:1009200008708249087081480078172808DD002087
:100930007B4908707B4908707B4908707B490870C7
:1009400075488179E01D814219DD10217148FFF75A
:100950003EFE0020704988710871487108720821B4
:100960006C48FFF734FE04216A48FFF730FE02218D
:100970006848FFF72CFE01216648FFF728FE66480D
:10098000007961287EDA64480079634949798842B0
:1009900078D061488079A04274DD5F4800795E4973
:1009A00048710846007962495D4A1278895C88423C
:1009B00023D159488079401E001B00EB40005D495F
:1009C00001EB80005649097800EBE10000785449BA
:1009D000097801F0070201219140084020B1082167
:1009E0004C48FFF7F6FD03E008214A48FFF7EFFD0A
:1009F0004B480078401C4A490870474801794E48E6
:100A0000484A1278805C814224D143488079401E54
:100A1000001B00EB4000474901EB80004149097889
:100A2000032202EBE101405C3E49097801F0070234
:100A300001219140084020B104213648FFF7C9FD4B
:100A400003E004213348FFF7C2FD36480078401C1C
:100A500034490870304800793849334A1278895C43
:100A6000884226D12C488079401E001B00EB4000B4
:100A7000304901EB80002C490978062202EBE101A4
:100A8000405C00E042E02849097801F007020121BA
:100A90009140084020B102211E48FFF79AFD03E073
:100AA00002211C48FFF793FD1F480078401C1E4997
:100AB00008701948017922481C4A1278805C8142EA
:100AC00024D115488079401E001B00EB40001949D5
:100AD00001EB800015490978092202EBE101405C35
:100AE0001249097801F0070201219140084020B124
:100AF00001210848FFF76DFD03E001210548FFF7DC
:100B000066FD0A480078401C0849087010BD0000C6
:100B10002100002000100140900000202200002051
:100B200023000020240000202500002026000020B3
:100B3000F81000089A000020111100082A1100087E
:100B40004311000829B1064A92690243044B9A6195
:100B500004E0034A92698243014B9A6170470000A6
:100B60000010024030B500210022002400232D4D4A
:100B70006D6805F00C0121B1042905D0082923D1A5
:100B800005E0294D056022E0274D05601FE0254D59
:100B90006D6805F47012234D6D6805F480340225EC
:100BA00005EB92421CB9214D554305600BE01D4DEC
:100BB0006D6805F400351DB11C4D5543056002E01C
:100BC000194D5543056002E0174D056000BF00BF99
:100BD000144D6D6805F0F0010909154D6B5C056851
:100BE000DD4045600F4D6D6805F4E061090A104D68
:100BF0006B5C4568DD4085600A4D6D6805F46051A9
:100C0000C90A0B4D6B5C4568DD40C560054D6D68DC
:100C100005F44041890B074D6B5CC568B5FBF3F5E6
:100C2000056130BD0010024000127A0000093D004D
:100C30007C0000208C000020704710B500F002F806
:100C400010BD00000CB500200190009033480068F2
:100C500040F480303149086000BF3048006800F43B
:100C6000003000900198401C0190009818B901983C
:100C7000B0F5A06FF1D12948006800F4003010B140
:100C80000120009001E0002000900098012843D14D
:100C90002348006840F010002149086008460068B9
:100CA00020F0030008600846006840F00200086079
:100CB0001A48406819494860084640684860084634
:100CC000406840F4806048600846406820F47C102A
:100CD00048600846406840F4E810486008460068EC
:100CE00040F08070086000BF0C48006800F00070A1
:100CF0000028F9D00948406820F0030007494860FF
:100D00000846406840F00200486000BF0348406861
:100D100000F00C000828F9D10CBD000000100240C2
:100D200000200240042808D14FF0E021096941F079
:100D300004014FF0E022116107E04FF0E021096962
:100D400021F004014FF0E02211617047704700006C
:100D500010B51348006840F00100114908600846CA
:100D60004068104908400E494860084600680E492E
:100D700008400B4908600846006820F4802008609D
:100D80000846406820F4FE0048604FF41F00886069
:100D9000FFF753FF4FF000600449086010BD0000EA
:100DA000001002400000FFF8FFFFF6FE08ED00E033
:100DB00010B540F22551064800F01AF838B1044841
:100DC00000F0D2F8C4B22146024800F0D2F810BDBB
:100DD00000380140004C004021B1828942F40052A9
:100DE000828104E082894DF6FF731A408281704748
:100DF00070B50246002400230025002040F66A1644
:100E0000B14200D100BFC1F3421501F01F0301261A
:100E100006FA03F3012D02D19689334006E0022D34
:100E200002D1168A334001E0968A33400C12012623
:100E300006FA04F41688344013B10CB1012000E026
:100E4000002070BDF0B503460024002600250020D8
:100E500040F66A17B94200D100BF1846C1F34214E8
:100E600001F01F06012707FA06F5012C01D10C300D
:100E700004E0022C01D1103000E014301AB10768F0
:100E80002F43076002E00768AF430760F0BD000032
:100E90002DE9F04786B005460E460024A24600BF65
:100EA000A1460027B08900B100BF2F462C8A4CF61E
:100EB000FF700440F08804432C82AC894EF6F31096
:100EC0000440B08831890843718908430443AC81E8
:100ED000AC8A4FF6FF400440B0890443AC8201A8BD
:100EE000FFF740FE1F48874202D1DDF810A001E065
:100EF000DDF80CA0A88900F4004040B10AEBCA005C
:100F000000EB0A1031684900B0FBF1F807E00AEB8A
:100F1000CA0000EB0A1031688900B0FBF1F86420C8
:100F2000B8FBF0F004012009642101FB1089A889B5
:100F300000F4004040B1322000EBC900B0FBF1F0FA
:100F400000F00700044308E0322000EB09106421A0
:100F5000B0FBF1F000F00F0004432C8106B0BDE8B7
:100F6000F08700000038014001468888C0F308007F
:100F70007047C1F3080282807047000010B586B048
:100F80000446012144F20400FFF7DCFD4FF4007039
:100F9000ADF8140003208DF8160018208DF8170006
:100FA00005A91C48FFF788FA4FF48060ADF81400DB
:100FB00004208DF8170005A91648FFF77DFA2520B3
:100FC0008DF8000003208DF801008DF8020001204B
:100FD0008DF803006846FFF703FB01940020ADF88D
:100FE0000800ADF80A00ADF80C00ADF810000C20B8
:100FF000ADF80E0001A90848FFF74AFF012240F2B0
:1010000025510548FFF71EFF01210348FFF7E4FEC5
:1010100006B010BD000801400038014000BFFEE7E7
:10102000014600BF7047000010B56FF00400FFF7E5
:1010300079FE0A4800680A49B0FBF1F009490870D6
:101040000846007800EB4001C1EBC0104FF6FF717D
:1010500001EAC0000449088010BD00000000002023
:1010600000127A00140000201600002000BF054A7C
:10107000128802F04002002AF9D0C2B2014B1B1DB7
:101080001A807047003801404FF4E130FFF776FFD7
:10109000FFF7CAFFFFF7EAF9FFF7E4FA08A0FFF746
:1010A00005FB09A0FFF7B4F810211148FFF791FAEA
:1010B00005E010480078012801D1FFF701FCF8E7AE
:1010C000312E3335204B4D000D0A203C3C3D3D3D3B
:1010D0003D3D2042535020496E69742066696E6917
:1010E0007368203D3D3D3D3D3E3E200D0A00000021
:1010F00000100140200000200105090D1115191DE7
:101100002125292D3135393D4145494D5155595DEF
:101110006102060A0E12161A1E22262A2E32363AAC
:101120003E42464A4E52565A5E6203070B0F131751
:101130001B1F23272B2F33373B3F43474B4F53571F
:101140005B5F6304080C1014181C2024282C303416
:10115000383C4044484C5054585C606400000000E7
:101160000000000404040404000405050500000058
:10117000000A0A1F0A1F0A0A041E050E140F0403A0
:1011800013080402191806090502150916030201BD
:101190000000000004020101010204010204040431
:1011A0000201000A041F040A000004041F040400D2
:1011B000000000000302010000001F00000000000A
:1011C0000000000303001008040201000E111915AD
:1011D00013110E0406040404040E0E11100C020177
:1011E0001F0E11100C10110E080C0A091F08081F01
:1011F000010F1010110E0C02010F11110E1F10081B
:10120000040202020E11110E11110E0E11111E1008
:1012100008060003030003030000030300030201A8
:101220000804020102040800001F001F0000010260
:1012300004080402010E1110080400040E11101617
:1012400015150E0E11111F1111110F11110F111182
:101250000F0E11010101110E070911111109071FCC
:1012600001010F01011F1F01010F0101010E1101F9
:101270000119111E1111111F111111070202020291
:1012800002071C08080808090611090503050911C9
:101290000101010101011F111B151511111111117E
:1012A00013151911110E11111111110E0F11110F2A
:1012B0000101010E1111111509160F11110F050968
:1012C000110E11010E10110E1F0404040404041168
:1012D00011111111110E11111111110A0411111115
:1012E0001515150A11110A040A111111110A040425
:1012F00004041F10080402011F0701010101010776
:101300000001020408100007040404040407040A8E
:1013100011000000000000000000001F0102040096
:1013200000000000000E101E111E01010D1311110E
:101330000F000006090109061010161911111E00F0
:10134000000E111F010E040A0207020202001E1104
:10135000111E100E01010D131111110100010101E7
:101360000101040006040404030101090503050941
:101370000302020202020700000B15111111000006
:101380000D0B0909090000060909090600070909EA
:10139000070101000E09090E0808000005030101FC
:1013A0000100000E01060807020207020202020005
:1013B00000090909090E00001111110A04000011A9
:1013C0001115150A0000110A040A11000909090E75
:1013D000080600001F0804021F04020201020204A2
:1013E00002020202020202010202040202011609C2
:1013F0000000000000000000000000001C140008B5
:1014000000000020900000006C010008AC140008EF
:1014100090000020180700008801000800A24A047C
:101420000000000000000000010203040607080994
:1014300000000000000000000000000000000000AC
:1014400000000000FFFFFFFFFFFFFFFFFFFFFFFFA8
:10145000FFFFFFFFFFFFFFFFFFFFFFFFFFFFFFFF9C
:10146000FFFFFFFFFFFFFFFFFFFFFFFFFFFFFFFF8C
:10147000FFFFFFFFFFFFFFFFFFFFFFFFFFFFFFFF7C
:10148000FFFFFFFFFFFFFFFFFFFFFFFFFFFFFFFF6C
:10149000FFFFFFFFFFFFFFFF00000000010203044A
:0C14A00001020304060708090204060804
:0400000508000131BD
:00000001FF
