:020000040800F2
:1000000018070020D501000865060008230600082F
:100010006106000889040008110F000800000000B4
:10002000000000000000000000000000290A000895
:100030008D04000800000000ED0600083D0B0008DC
:10004000EF010008EF010008EF010008A509000812
:10005000EF010008EF010008EF010008EF010008C0
:10006000EF010008EF010008EF010008EF010008B0
:10007000EF010008EF010008EF010008EF010008A0
:10008000EF010008EF010008EF010008EF01000890
:10009000EF010008EF010008EF01000891040008DB
:1000A000EF010008EF010008EF010008EF01000870
:1000B000EF010008EF010008EF010008EF01000860
:1000C000EF010008EF010008EF010008EF01000850
:1000D000EF010008A50C0008EF010008EF0100087F
:1000E000EF010008EF010008EF010008EF01000830
:1000F000EF010008EF010008EF010008EF01000820
:10010000EF010008EF010008A10B0008EF01000853
:10011000EF010008EF010008EF010008EF010008FF
:10012000EF010008EF010008EF010008EF010008EF
:1001300000F002F800F03FF80AA090E8000C8244BA
:100140008344AAF10107DA4501D100F034F8AFF297
:10015000090EBAE80F0013F0010F18BFFB1A43F0A5
:1001600001031847940E0000B40E0000103A24BF9B
:1001700078C878C1FAD8520724BF30C830C144BF0C
:1001800004680C607047000000230024002500264E
:10019000103A28BF78C1FBD8520728BF30C148BFEA
:1001A0000B607047642900F07780002070471FB50E
:1001B0001FBD10B510BD00F037F91146FFF7F7FF6E
:1001C00000F0DCFE00F055F903B4FFF7F2FF03BCCA
:1001D00000F0A0FE0948804709480047FEE7FEE717
:1001E000FEE7FEE7FEE7FEE7FEE7FEE7FEE7FEE7E7
:1001F00004480549054A064B70470000410B0008BA
:100200003101000818010020180700201803002001
:1002100018030020704700000FB4044910B503AA6A
:10022000029800F0D3F810BC5DF814FB30000020F9
:100230002DE9F0410E460446002020622046E16888
:10024000884730B3252805D0D4E901219047206A9A
:10025000401CF2E7E168204600278847050018D0D7
:10026000A5F14100192802D820354FF40067324625
:10027000294620462760FFF795FF40B1012804D0AA
:10028000F61D26F007060836D8E7361DD6E72846BD
:10029000DAE7206ABDE8F0812DE9F0410646002446
:1002A00010687529314616A510D0AFF300800028DC
:1002B00002DA404213A507E031688A0701D512A58A
:1002C00002E0490704D511A5012401E0AFF3008045
:1002D00000210A2206F1240709E0B0FBF2FCB0FB82
:1002E000F2F302FB1C00303078541846491C0028F9
:1002F000F3D123462A463046BDE8F04100F00CB861
:10030000000000002D0000002B0000002000000075
:1003100070477047704770472DE9F0470D46994682
:100320009246044600F124080168880604D5E06975
:1003300021F01001216000E00120A84201DD471BEF
:1003400000E00027A1697A1902EB0900081AA061F0
:100350002078C00602D42046AFF30080002608E0D3
:10036000D4E901211AF806009047206A401C761C47
:1003700020624E45F4DB2078C0060AD52046AFF354
:10038000008006E0D4E9012130209047206A401C1B
:100390002062381EA7F10107F4DC07E0D4E901214F
:1003A00018F805009047206A401C2062281EA5F11D
:1003B0000105F3DC2046AFF300802078000602D56B
:1003C0000220BDE8F0870120FBE70000074B70B575
:1003D0000D467B4400F011F80446284600F020F852
:1003E00010B14FF0FF3070BD204670BD8B0B000088
:1003F00001694A1C02610878704700B58FB0CDE9E9
:1004000001310021059105497944CDE903101146D8
:100410006846FFF70DFF0FB000BD0000E5FFFFFFCE
:10042000007B00F080007047754600F029F8AE466A
:1004300005006946534620F00700854618B020B5F0
:10044000FFF7D6FEBDE820404FF000064FF0000752
:100450004FF000084FF0000B21F00701AC46ACE86C
:10046000C009ACE8C009ACE8C009ACE8C0098D46D9
:1004700070470446AFF300802046FFF7A5FE00005A
:1004800000487047B400002000BFFEE7704700003E
:1004900010B54FF4007000F025F838B101200B4979
:1004A00008700B490870400200F016F84FF4807095
:1004B00000F018F848B101200649087000200349EF
:1004C00008704FF4807000F007F810BD3400002071
:1004D0003500002036000020014908607047000008
:1004E00014040140014600200022074B1B6803EA68
:1004F0000102054B14331B680B4013B10AB10120F4
:1005000000E0002070470000000401402DE9F041A8
:10051000024600250026002000230024002791F831
:1005200003C00CF00F0591F803C00CF0100CBCF1E7
:10053000000F03D091F802C04CEA050591F800C005
:10054000BCF1000F31D0146800202BE04FF0010CFB
:100550000CFA00F3B1F800C00CEA03069E4220D169
:1005600083004FF00F0C0CFA03F7BC4305FA03FCB1
:100570004CEA040491F803C0BCF1280F06D14FF0F7
:10058000010C0CFA00FCC2F814C00AE091F803C098
:10059000BCF1480F05D14FF0010C0CFA00FCC2F879
:1005A00010C0401C0828D1D31460B1F800C0BCF1C1
:1005B000FF0F34DD546800202EE000F1080C4FF0EE
:1005C000010808FA0CF3B1F800C00CEA03069E42D9
:1005D00021D183004FF00F0C0CFA03F7BC4305FA4E
:1005E00003FC4CEA040491F803C0BCF1280F05D1C8
:1005F00000F1080C08FA0CF8C2F8148091F803C056
:10060000BCF1480F07D100F1080C4FF0010808FABF
:100610000CF8C2F81080401C0828CED35460BDE806
:10062000F08100BFFEE70146CA1701EB92729210FB
:10063000A1EB820292B9642091FBF0F200FB121050
:1006400050B94FF4C87091FBF0F200FB121008B9DA
:10065000012070470020FCE70120FAE70020F8E7BE
:1006600000BFFEE77047000070B5002100230F2295
:10067000C47804B3154C246804F4E064C4F5E06461
:10068000210AC1F10403CA40447804FA03F18478D2
:100690001440214309010E4C0678A155047804F05A
:1006A0001F050124AC4005786D11AD0005F1E02572
:1006B000C5F8004109E0047804F01F050124AC40AE
:1006C000044D0678761145F8264070BD0CED00E02B
:1006D00000E400E080E100E002490143024A1160C9
:1006E000704700000000FA050CED00E070470000C4
:1006F00029B1064A92690243044B9A6104E0034A15
:1007000092698243014B9A617047000000100240D9
:1007100030B500210022002400232D4D6D6805F026
:100720000C0121B1042905D0082923D105E0294D68
:10073000056022E0274D05601FE0254D6D6805F43A
:100740007012234D6D6805F48034022505EB92424A
:100750001CB9214D554305600BE01D4D6D6805F436
:1007600000351DB11C4D5543056002E0194D554340
:10077000056002E0174D056000BF00BF144D6D68B5
:1007800005F0F0010909154D6B5C0568DD40456019
:100790000F4D6D6805F4E061090A104D6B5C45680A
:1007A000DD4085600A4D6D6805F46051C90A0B4D46
:1007B0006B5C4568DD40C560054D6D6805F44041E2
:1007C000890B074D6B5CC568B5FBF3F5056130BD62
:1007D0000010024000127A0000093D009200002043
:1007E000A2000020024909888143014A1180704714
:1007F0000428004070B500260024002500F07AF897
:1008000006463848B6FBF0F437480088A0423CD092
:1008100035490C8040F2B27510E02846FFF703FF1F
:1008200040B1B4F5B77F02D3A4F5B77404E0681CF7
:1008300085B206E0A4F26D14681C85B2B4F5B67FEB
:10084000EBD800BF29488580002516E02749888815
:10085000FFF7E9FE30B1012D04D11D2C01D31D3C61
:1008600009E00CE02248405DA04203D82048405DEA
:10087000241A00E003E0681C85B21C2CE6D200BFFD
:10088000681C1A498871601CC8711648B6FBF0F1E3
:1008900000FB11644FF46160B4FBF0F01349087081
:1008A0004FF46160B4FBF0F100FB11403C21B0FB60
:1008B000F1F00E4948704FF46160B4FBF0F100FBB9
:1008C00011403C21B0FBF1F201FB12000749887096
:1008D0000B46DA799979988800F028F8034908726C
:1008E000002070BD8051010090000020A800002071
:1008F000EC0F0008002103480188001F008841EA2E
:10090000004070471C28004001460020064A12881B
:100910000A40D0B2044A121F12880A4012B108B12C
:10092000012000E00020704704280040F0B5034695
:100930000C461546642093FBF0F0C6B2642093FB8E
:10094000F0F700FB1730C1B2132E02DD01F1640095
:10095000C1B20846CF1701EB977701EBA707BAB2F0
:10096000072092FBF0F700FB172082B25719601E98
:10097000DFF82CC01CF80000384482B2CF1701EB1E
:100980009777BF10A1EB87071FB9032C01DA501E20
:1009900082B2072092FBF0F700FB1720C0B2F0BD37
:1009A000E00F00080EB50120FFF7AEFF08B1FFF71A
:1009B00021FF0220FFF7A8FFA0B10220FFF712FFDE
:1009C000FFF718FF0A48807809494978084A1278E1
:1009D000CDE9002102900648C3798279818805A07B
:1009E000FFF71AFC0520FFF7FDFE00F013F80EBD1F
:1009F000A8000020416C61726D2054696D653A2534
:100A0000642D25642D25642025643A25643A2564E7
:100A10000A00000000BF0348008800F02000002802
:100A2000F9D0704704280040704710B500F002F874
:100A300010BD00000CB50020019000903348006804
:100A400040F480303149086000BF3048006800F44D
:100A5000003000900198401C0190009818B901984E
:100A6000B0F5A06FF1D12948006800F4003010B152
:100A70000120009001E0002000900098012843D15F
:100A80002348006840F010002149086008460068CB
:100A900020F0030008600846006840F0020008608B
:100AA0001A48406819494860084640684860084646
:100AB000406840F4806048600846406820F47C103C
:100AC00048600846406840F4E810486008460068FE
:100AD00040F08070086000BF0C48006800F00070B3
:100AE0000028F9D00948406820F003000749486011
:100AF0000846406840F00200486000BF0348406874
:100B000000F00C000828F9D10CBD000000100240D4
:100B100000200240042808D14FF0E021096941F08B
:100B200004014FF0E022116107E04FF0E021096974
:100B300021F004014FF0E02211617047704700007E
:100B400010B51348006840F00100114908600846DC
:100B50004068104908400E494860084600680E4940
:100B600008400B4908600846006820F480200860AF
:100B70000846406820F4FE0048604FF41F0088607B
:100B8000FFF753FF4FF000600449086010BD0000FC
:100B9000001002400000FFF8FFFFF6FE08ED00E045
:100BA00010B52C48007800F0800000284CD10121BD
:100BB000294800F05BF8D0B12648007800F04000EA
:100BC000A8B12448007800F03F003F280AD121480E
:100BD000007840F080001F4908704FF6FF701F49F1
:100BE000088004E01B480078401C1A490870022164
:100BF000194800F03BF838B31648007800F0400080
:100C000078B11448007840F080001249087012480A
:100C100000F029F81149088000210F4800F037F84A
:100C200012E000200B4908700C49088000210A4896
:100C300000F036F80748007840F040000549087099
:100C40000221054800F023F80321034800F008F8CA
:100C500010BD000026000020000C004028000020ED
:100C6000CA43028270470146888E704730B50246FB
:100C7000002000230024158A05EA0103958905EA6E
:100C8000010413B10CB1012000E0002030BD0A4680
:100C90000021018C4FF6FD73194011430184704708
:100CA0008184704710B540F22551064800F01AF8CB
:100CB00038B1044800F0D2F8C4B22146024800F02E
:100CC000D2F810BD00380140004C004021B18289AB
:100CD00042F40052828104E082894DF6FF731A408B
:100CE0008281704770B50246002400230025002051
:100CF00040F66A16B14200D100BFC1F3421501F0BF
:100D00001F03012606FA03F3012D02D19689334011
:100D100006E0022D02D1168A334001E0968A334064
:100D20000C12012606FA04F41688344013B10CB1F3
:100D3000012000E0002070BDF0B50346002400262D
:100D40000025002040F66A17B94200D100BF1846BE
:100D5000C1F3421401F01F06012707FA06F5012C22
:100D600001D10C3004E0022C01D1103000E014302D
:100D70001AB107682F43076002E00768AF430760B6
:100D8000F0BD00002DE9F04786B005460E46002470
:100D9000A24600BFA1460027B08900B100BF2F4680
:100DA0002C8A4CF6FF700440F08804432C82AC89F6
:100DB0004EF6F3100440B088318908437189084326
:100DC0000443AC81AC8A4FF6FF400440B089044331
:100DD000AC8201A8FFF79CFC1F48874202D1DDF8D6
:100DE00010A001E0DDF80CA0A88900F4004040B19B
:100DF0000AEBCA0000EB0A1031684900B0FBF1F8B9
:100E000007E00AEBCA0000EB0A1031688900B0FB6A
:100E1000F1F86420B8FBF0F004012009642101FB23
:100E20001089A88900F4004040B1322000EBC900CD
:100E3000B0FBF1F000F00700044308E0322000EBC3
:100E400009106421B0FBF1F000F00F0004432C8185
:100E500006B0BDE8F08700000038014001468888F0
:100E6000C0F308007047C1F3080282807047000099
:100E700010B586B00446012144F20400FFF738FCA7
:100E80004FF40070ADF8140003208DF81600182000
:100E90008DF8170005A91C48FFF738FB4FF4806058
:100EA000ADF8140004208DF8170005A91648FFF7C7
:100EB0002DFB25208DF8000003208DF801008DF812
:100EC000020001208DF803006846FFF7CDFB019476
:100ED0000020ADF80800ADF80A00ADF80C00ADF840
:100EE00010000C20ADF80E0001A90848FFF74AFFDA
:100EF000012240F225510548FFF71EFF012103485A
:100F0000FFF7E4FE06B010BD0008014000380140C4
:100F100000BFFEE7014600BF7047000010B56FF04C
:100F20000400FFF7F7FD0A4800680A49B0FBF1F03A
:100F3000094908700846007800EB4001C1EBC01079
:100F40004FF6FF7101EAC0000449088010BD00009F
:100F50000000002000127A0014000020160000207B
:100F600000BF054A128802F04002002AF9D0C2B23E
:100F7000014B1B1D1A807047003801404FF4A060E0
:100F8000FFF7AAFB4FF4E130FFF772FF04A0FFF771
:100F900043F9FFF7C3FF08A0FFF73EF900BFFEE7E4
:100FA0000D0A20757361727420696E697420666918
:100FB0006E697368200D0A000D0A203C3C3D3D3DE2
:100FC0003D3D2042535020496E69742066696E6928
:100FD0007368203D3D3D3D3D3E3E200D0A00000032
:100FE0000003030601040602050003051F1C1F1E63
:100FF0001F1E1F1F1E1F1E1F1810000800000020AC
:10100000A80000006C010008C0100008A800002023
:10101000700600008801000800A24A0400000000D9
:101020000000000001020304060708090000000098
:1010300000000000000000000000000000000000B0
:1010400000000000000000000000000000000000A0
:1010500000000000FFFFFFFFFFFFFFFFFFFFFFFF9C
:10106000FFFFFFFFFFFFFFFFFFFFFFFFFFFFFFFF90
:10107000FFFFFFFFFFFFFFFFFFFFFFFFFFFFFFFF80
:10108000FFFFFFFFFFFFFFFFFFFFFFFFFFFFFFFF70
:10109000FFFFFFFFFFFFFFFFFFFFFFFFFFFFFFFF60
:1010A000FFFFFFFFFFFFFFFF000000000000010245
:1010B00003040102030406070809020406080000ED
:0400000508000131BD
:00000001FF
