:020000040800F2
:10000000001E002029020008310200083302000807
:10001000350200083702000839020008000000001D
:100020000000000000000000000000003B0200088B
:100030003D020008000000003F020008C51B000848
:10004000430200084302000843020008430200087C
:10005000430200084302000843020008430200086C
:10006000430200084302000843020008430200085C
:10007000430200084302000843020008430200084C
:10008000430200084302000843020008430200083C
:10009000430200084302000843020008430200082C
:1000A000430200084302000843020008430200081C
:1000B000430200084302000843020008430200080C
:1000C00043020008430200084302000843020008FC
:1000D00043020008430200084302000843020008EC
:1000E00043020008430200084302000843020008DC
:1000F00043020008430200084302000843020008CC
:1001000043020008430200084302000843020008BB
:1001100043020008430200084302000843020008AB
:10012000430200084302000843020008430200089B
:10013000430200084302000843020008430200088B
:10014000430200084302000843020008430200087B
:10015000430200084302000843020008430200086B
:10016000430200084302000843020008430200085B
:10017000430200084302000843020008430200084B
:10018000430200084302000800F002F800F03CF8C7
:100190000AA090E8000C82448344AAF10107DA45E2
:1001A00001D100F031F8AFF2090EBAE80F0013F0F8
:1001B000010F18BFFB1A43F001031847BC1A0000D7
:1001C000DC1A0000103A24BF78C878C1FAD8520768
:1001D00024BF30C830C144BF04680C6070470000C1
:1001E0000023002400250026103A28BF78C1FBD840
:1001F000520728BF30C148BF0B6070471FB501F0E0
:1002000035FD1FBD10B510BD00F031F81146FFF7E8
:10021000F5FF01F01BFD00F04FF803B4FFF7F2FF0C
:1002200003BC00F057F80000094880470948004720
:10023000FEE7FEE7FEE7FEE7FEE7FEE7FEE7FEE796
:10024000FEE7FEE704480549054A064B70470000F3
:10025000E11B00088901000800120020001E002098
:100260000016002000160020704770477047754642
:1002700000F02CF8AE4605006946534620F0070012
:10028000854618B020B5FFF7DDFFBDE820404FF0F0
:1002900000064FF000074FF000084FF0000B21F070
:1002A0000701AC46ACE8C009ACE8C009ACE8C0093D
:1002B000ACE8C0098D46704710B50446AFF3008026
:1002C0002046BDE81040FFF7A8BF00000048704777
:1002D000A011002001491820ABBEFEE72600020055
:1002E000704710B54FF4806000F0C6FD01F02EFCA1
:1002F00000F07AF800F0B2F800F0BEFE002010BD69
:1003000010B500F01BF800F065F810BD10B5012223
:100310000749002000F0B0F905480088202805D0E2
:1003200000F0DAFE00F0E0FD00F004F810BD00007F
:10033000A001002010B5FFF7E3FF10BD2148D0F861
:100340004B00214948601F48D0F84F0088609FED5E
:100350001F0A084680ED030A1A48D0F853000861C6
:100360009FED1B0A084680ED050A1648D0F8570095
:10037000C8611448D0F85B0008629FED140A084673
:1003800080ED090A0F48D0F85F0088629FED100ADF
:10039000084680ED0B0A0B48D0F863004863094813
:1003A000D0F8670088639FED090A084680ED0F0AC0
:1003B0000448D0F86B0008649FED050A084680EDFC
:1003C000110A7047A0010020D00000200AD7A33BEB
:1003D000000000000248D0F86F00024948607047F2
:1003E000A0010020180100201CB5684600F0F2FBB7
:1003F0000121102000F0CAFE01208DF804008DF8C4
:10040000070000208DF8060002208DF80500072067
:1004100000906946104800F067F901208DF804004B
:100420008DF8060002208DF805000820009069462E
:10043000094800F059F90821074800F00BFB042196
:10044000054800F067FB0221034800F003FB01218F
:10045000014800F0FFFA1CBD0010024000B589B051
:100460000121084600F092FE0121080300F01AFF66
:1004700005221146564800F013FA05220621544879
:1004800000F00EFA05220721514800F009FAE02099
:10049000069002208DF81C0003208DF81D0000201E
:1004A0008DF81E0002208DF81F0006A9484800F0B4
:1004B0001BF91020069001208DF81C0000208DF8FB
:1004C0001E0001208DF81F0000208DF81D0006A9D8
:1004D0003F4800F009F93F4801F030F80020ADF83E
:1004E00004004FF48270ADF806000020ADF808005B
:1004F0000220ADF80A000120ADF80C004002ADF872
:100500000E001820ADF810000020ADF812000720F2
:10051000ADF8140001A92F4801F048F901212D4838
:1005200000F0C0FF01221021294800F05DFB0022ED
:100530001021274800F058FBFF2000F0B9F80122F5
:100540001021234800F050FB08A800F071F89DF836
:100550002000EF2831D14FF480501F4948809DF88A
:100560002200182803D14FF4805088801DE09DF8A8
:100570002200172804D14FF400601749888014E046
:100580009DF82200162804D14FF48060124988801B
:100590000BE09DF82200152804D14FF400700E499D
:1005A000888002E000200C4988800B4840880A4976
:1005B000898848430849886004E00020064908709B
:1005C00009B000BD01200449087000BFF8E7000031
:1005D0000000024000300140C400002070B5044615
:1005E0000D46164600221021104800F0FDFA0320A7
:1005F00000F05EF8C4F3074000F05AF8C4F3072097
:1006000000F056F8E0B200F053F804E0FF2000F0EC
:100610004FF828706D1C301EA6F10106F6D101229C
:100620001021024800F0E0FA70BD00000000024016
:1006300070B505462C46002210210E4800F0D4FA71
:100640009F2000F035F8FF2000F032F804F8010B8D
:10065000FF2000F02DF804F8010BFF2000F028F82F
:1006600004F8010B01221021024800F0BDFA28789D
:1006700070BD0000000002402DE9F04104460D4627
:100680001646002700BF0DE008484288294620464C
:10069000FFF7A4FF05484088054404484088044407
:1006A000781C87B2B742EFDBBDE8F081C4000020C0
:1006B00010B5044600BF02210A4800F097FF002849
:1006C000F9D02146074801F031F800BF0121054863
:1006D00000F08CFF0028F9D0024800F0E7FFC0B21C
:1006E00010BD0000003001402DE9F04104460D46E8
:1006F00000260027B0465248844217D05148844211
:1007000014D05148844211D0504884420ED05048F1
:1007100084420BD04F48844208D04F48844205D0D1
:100720004E48844202D04E48844200D103E0BB21AF
:100730004CA001F089FA002010B9286800B103E04C
:10074000BC2148A001F080FA287940B1287901281D
:1007500005D02879022802D02879032800D103E0A7
:10076000BD2140A001F070FAE87928B1E8790128AC
:1007700002D0E879022800D103E0BE2139A001F0BF
:1007800063FA002657E0012000FA06F7286800EA1D
:100790000708B8454ED12068720003219140884374
:1007A00020602879710088402168084320602879FA
:1007B000012802D02879022830D1687940B16879BF
:1007C000012805D06879022802D06879032800D171
:1007D00003E0D02123A001F037FAA06872000321C2
:1007E00091408843A060687971008840A1680843FF
:1007F000A060A87910B1A879012800D103E0D72121
:1008000018A001F021FA61680120B04081436160C5
:100810006068A979B14089B208436060E0687200FD
:10082000032191408843E060E87971008840E168E5
:100830000843E060761C102EA5D3BDE8F0810000CF
:10084000000002400004024000080240000C024088
:10085000001002400014024000180240001C024038
:10086000002002404C69627261726965735C535486
:100870004D3332463478785F5374645065726970D2
:10088000685F4472697665725C7372635C73746DE1
:100890003332663478785F6770696F2E63000000CA
:1008A0002DE9F04106460D4614460027B84651484A
:1008B000864217D05048864214D05048864211D004
:1008C0004F4886420ED04F4886420BD04E48864253
:1008D00008D04E48864205D04D48864202D04D4849
:1008E000864200D104E040F217214BA001F0ACF9A0
:1008F000EDB1012D1BD0022D19D0032D17D0042DE1
:1009000015D0052D13D0062D11D0072D0FD0082D91
:100910000DD0092D0BD00A2D09D00B2D07D00C2D91
:1009200005D00D2D03D00E2D01D00F2D00D104E0E8
:100930004FF4067138A001F087F99CB3092C31D02F
:1009400084B37CB374B36CB3012C2BD02AD0022CAB
:1009500028D027D026D0032C24D0042C22D021D07C
:1009600020D0052C1ED01DD0092C1BD0062C19D050
:10097000092C17D0072C15D014D013D0082C11D067
:1009800010D00FD0092C0DD00CD00A2C0AD009D0D1
:100990000B2C07D00C2C05D004D003D00D2C01D08B
:1009A0000F2C00D104E040F219211BA001F04CF9FA
:1009B0006807C00E04FA00F7E91006F1200050F8AD
:1009C00021006907CA0E0F2191408843EA1006F101
:1009D000200141F82200E91006F1200050F8210022
:1009E00040EA0708E91006F1200040F82180BDE840
:1009F000F0810000000002400004024000080240B4
:100A0000000C024000100240001402400018024096
:100A1000001C0240002002404C69627261726965EC
:100A2000735C53544D3332463478785F537464505A
:100A300065726970685F4472697665725C7372632F
:100A40005C73746D3332663478785F6770696F2ECB
:100A50006300000070B504460D461648844217D066
:100A60001548844214D01548844211D01448844259
:100A70000ED0144884420BD01348844208D0134847
:100A8000844205D01248844202D01248844200D1E8
:100A900004E04FF4C97110A001F0D6F8002008B9A5
:100AA00005B104E040F293110BA001F0CDF865838D
:100AB00070BD000000000240000402400008024037
:100AC000000C0240001002400014024000180240D6
:100AD000001C0240002002404C696272617269652C
:100AE000735C53544D3332463478785F537464509A
:100AF00065726970685F4472697665725C7372636F
:100B00005C73746D3332663478785F6770696F2E0A
:100B10006300000070B504460D461648844217D0A5
:100B20001548844214D01548844211D01448844298
:100B30000ED0144884420BD01348844208D0134886
:100B4000844205D01248844202D01248844200D127
:100B500004E040F27F1110A001F076F8002008B9FF
:100B600005B104E04FF4C0710BA001F06DF82583CE
:100B700070BD000000000240000402400008024076
:100B8000000C024000100240001402400018024015
:100B9000001C0240002002404C696272617269656B
:100BA000735C53544D3332463478785F53746450D9
:100BB00065726970685F4472697665725C737263AE
:100BC0005C73746D3332663478785F6770696F2E4A
:100BD000630000004FF6FF71016000210171417157
:100BE0008171C1717047000070B505460C4616460C
:100BF0002E48854217D02E48854214D02D48854274
:100C000011D02D4885420ED02C4885420BD02C485F
:100C1000854208D02B48854205D02B48854202D01A
:100C20002A48854200D104E04FF4D37128A001F096
:100C30000BF8012C25D0022C23D0042C21D0082C19
:100C40001FD0102C1DD0202C1BD0402C19D0802C54
:100C500017D0B4F5807F14D0B4F5007F11D0B4F56F
:100C6000806F0ED0B4F5006F0BD0B4F5805F08D064
:100C7000B4F5005F05D0B4F5804F02D0B4F5004F55
:100C800000D104E040F2A71111A000F0DDFF0EB189
:100C9000012E00D104E04FF4D4710DA000F0D4FF78
:100CA0000EB12C8300E06C8370BD00000000024098
:100CB0000004024000080240000C02400010024004
:100CC0000014024000180240001C024000200240B4
:100CD0004C69627261726965735C53544D3332467C
:100CE0003478785F5374645065726970685F4472D9
:100CF000697665725C7372635C73746D33326634EB
:100D000078785F6770696F2E630000000B4A116886
:100D10004FF0E02252694FF0E0239B69D21A4FF462
:100D20007A735A434FF0E0235B69B2FBF3F201EBB5
:100D30004103C3EBC11302EBC30070475400002012
:100D4000002054E02B4931F8101000EE101AB8EED4
:100D5000400A294901EB8001D1ED000AB4EEE00A16
:100D6000F1EE10FA18D230B1012808D002280AD0CA
:100D7000032810D10BE00821204A51830BE0042105
:100D80001E4A118307E002211C4A118303E001215E
:100D90001A4A118300BF18E030B1012808D0022898
:100DA0000AD0032810D10BE00821144A11830BE06C
:100DB0000421124A518307E00221104A518303E0C3
:100DC00001210E4A518300BF00BF0A4931F81010BB
:100DD000491C89B2074A22F81010094A1288914228
:100DE00003DB0021034A22F81010411CC8B204287A
:100DF000A8DB704782000020600000200010024045
:100E00005E00002010B50E4840680D490860FFF7ED
:100E10007DFF0B4948600B49C86009484068084994
:100E20000968401A06498860FFF770FF05490861A4
:100E300008460069C968401A0249486110BD0000AF
:100E4000A0000020AC00002010B5FFF75FFF0649AE
:100E50000860FFF75BFF0449086108460069C9683C
:100E6000401A0149486110BDAC000020704770472E
:100E7000704770477047000010B50446B4F5E06F46
:100E80000BD0B4F5C06F08D0B4F5A06F05D0B4F5A1
:100E9000806F02D0B4F5407F00D103E0732104A03D
:100EA00000F0D2FE0E4820430E49086010BD00003D
:100EB0004C69627261726965735C53544D3332469A
:100EC0003478785F5374645065726970685F4472F7
:100ED000697665725C7372635C6D6973632E63001F
:100EE0000000FA050CED00E0B0EE0C0A10EE100A5E
:100EF0005C49C1F84B009FED5C0A10EE100AC1F886
:100F00004F009FED5A0A10EE100AC1F85300B0EEE0
:100F10000C0A10EE100AC1F857009FED530A10EEAC
:100F2000101A5048C0F85B109FED500A10EE101ACE
:100F3000C0F85F10B1EE000A10EE100A4949C1F87E
:100F400063009FED490A10EE101A4648C0F867107A
:100F50009FED450A10EE101AC0F86B10B1EE040AAE
:100F600010EE100A3F49C1F86F00B0EE080A10EE0B
:100F7000100AC1F873009FED3C0A10EE100AC1F888
:100F80007700B1EE040A10EE100AC1F87B00B0EE53
:100F9000080A10EE101A3348C0F87F109FED320A8D
:100FA00010EE101AC0F88310B1EE040A10EE100A09
:100FB0002C49C1F88700B7EE000A10EE101A294834
:100FC000C0F88B109FED2A0A10EE101AC0F88F108F
:100FD000B0EE000A10EE100A2249C1F89300B0EEFC
:100FE000000A10EE100AC1F897009FED220A10EED9
:100FF000100AC1F89B00B7EE000A10EE100AC1F803
:101000009F009FED190A10EE100AC1F8A3009FED92
:10101000160A10EE100AC1F8A7009FED130A10EE91
:10102000100AC1F8AB009FED100A10EE100AC1F8CB
:10103000AF009FED0D0A10EE100AC1F8B3009FED4E
:101040000A0A10EE100AC1F8B7009FED070A10EE69
:10105000100AC1F8BB009FED040A10EE100AC1F897
:10106000BF007047A001002000000000CDCCCC3DA7
:10107000CDCC4C3F0AD7A33C10B5FFF747F910BDC4
:10108000002022E0124901EB80010968114A42F870
:1010900020100F490C3101EB800109680C3242F835
:1010A00020100B49303101EB80010A6809492431D5
:1010B00041F8202006493C3101EB80010968054ACE
:1010C000303242F82010411CC8B20328DADB7047E6
:1010D000A30100206401002010B50020274988707A
:1010E0009FED270A10EE100AC1F8C3009FED250AF4
:1010F00010EE100AC1F8C700B2EE050A10EE100A91
:10110000C1F8CB009FED200A10EE100AC1F8CF0005
:1011100000202EE09FED1C0A10EE101A174AD21C78
:1011200002EB800211609FED180A10EE101A134AAC
:101130000F3202EB800211609FED130A10EE102AAD
:101140000E49333101EB80010A60B7EE000A10EE60
:10115000101A0A4A3F3202EB800211609FED0A0A20
:1011600010EE102A0549273101EB80010A60411C6D
:10117000C8B20328CEDBFFF783FF10BDA00100201B
:1011800066662A419A9931410000000070B5044614
:101190000D461048204008B904B104E04FF48861BE
:1011A0000DA000F051FD0DB1012D00D104E040F281
:1011B000424109A000F048FD2DB1164800682043C7
:1011C0001449086004E013480068A043114908600E
:1011D00070BD000000EE8B814C69627261726965BE
:1011E000735C53544D3332463478785F5374645093
:1011F00065726970685F4472697665725C73726368
:101200005C73746D3332663478785F7263632E6317
:10121000000000003038024070B504460D4610480A
:10122000204008B904B104E04FF4AC610DA000F017
:101230000BFD0DB1012D00D104E040F2615109A078
:1012400000F002FD2DB116480068204314490860E3
:1012500004E013480068A0431149086070BD000015
:10126000003601C94C69627261726965735C5354DE
:101270004D3332463478785F5374645065726970C8
:10128000685F4472697665725C7372635C73746DD7
:101290003332663478785F7263632E630000000037
:1012A0002038024070B504460D461048204008B969
:1012B00004B104E040F2D5410DA000F0C5FC0DB131
:1012C000012D00D104E040F2D64109A000F0BCFCA1
:1012D0002DB11648006820431449086004E0134803
:1012E0000068A0431149086070BD0000CCA0F8FF61
:1012F0004C69627261726965735C53544D33324656
:101300003478785F5374645065726970685F4472B2
:10131000697665725C7372635C73746D33326634C4
:1013200078785F7263632E630000000044380240E7
:1013300070B504460D461048204008B904B104E0D9
:1013400040F284510DA000F07FFC0DB1012D00D1C1
:1013500004E040F2855109A000F076FC2DB116485A
:10136000006820431449086004E013480068A04363
:101370001149086070BD0000CCA6F8FF4C6962728C
:1013800061726965735C53544D3332463478785FCB
:101390005374645065726970685F447269766572EF
:1013A0005C7372635C73746D3332663478785F7229
:1013B00063632E630000000024380240F0B5002172
:1013C00000220024022500260223324F3F6807F046
:1013D0000C0121B1042905D0082937D105E02E4F91
:1013E000076036E02D4F076033E02A4F3F1F3F680C
:1013F000C7F38056274F3F1F3F6807F03F036EB18A
:10140000264FB7FBF3F7DFF88CC0ACF1040CDCF827
:1014100000C0CCF3881C07FB0CF40CE01E4FB7FB9C
:10142000F3F7DFF870C0ACF1040CDCF800C0CCF3CB
:10143000881C07FB0CF4174F3F1F3F68C7F3014799
:101440007F1C7D00B4FBF5F7076002E0124F0760D8
:1014500000BF00BF0F4F3F6807F0F0010909104FB0
:101460007A5C0768D74047600A4F3F6807F4E0514D
:10147000890A0B4F7A5C4768D7408760054F3F6801
:1014800007F46041490B064F7A5C4768D740C76054
:10149000F0BD0000083802400024F40000127A0079
:1014A0009000002070B504460D461248844205D0D5
:1014B0001148844202D01148844200D104E040F235
:1014C00001210FA000F0C0FB0DB1012D00D104E0FF
:1014D00040F202210AA000F0B7FB25B1208840F0BD
:1014E0004000208004E020884FF6BF710840208033
:1014F00070BD00000030014000380040003C00405A
:101500004C69627261726965735C53544D33324643
:101510003478785F5374645065726970685F4472A0
:10152000697665725C7372635C73746D33326634B2
:1015300078785F7370692E630000000010B5044670
:101540001848844205D01848844202D01748844283
:1015500000D103E0DD2116A000F076FB11488442A3
:1015600008D101218014FFF7E3FE0021A014FFF74A
:10157000DFFE16E00C48844208D101210014FFF779
:101580004BFE00212014FFF747FE0AE00748844283
:1015900007D10121C013FFF73FFE0021E013FFF741
:1015A0003BFE10BD0030014000380040003C0040D0
:1015B0004C69627261726965735C53544D33324693
:1015C0003478785F5374645065726970685F4472F0
:1015D000697665725C7372635C73746D3332663402
:1015E00078785F7370692E630000000070B505465F
:1015F0000C4600261A4885420BD01A48854208D06E
:101600001948854205D01948854202D0B5F1402FCE
:1016100000D104E040F2734115A000F015FB802CCE
:1016200010D0402C0ED0202C0CD0102C0AD0082C1E
:1016300008D0042C06D0022C04D0012C02D0B4F522
:10164000807F00D104E040F2744109A000F0FCFA70
:101650002889204008B1012600E00026304670BDF0
:101660000030014000380040003C004000340040A1
:101670004C69627261726965735C53544D333246D2
:101680003478785F5374645065726970685F44722F
:10169000697665725C7372635C73746D3332663441
:1016A00078785F7370692E630000000010B50446FF
:1016B0000B4884420BD00B48844208D00A4884422D
:1016C00005D00A48844202D0B4F1402F00D104E092
:1016D00040F20A3106A000F0B7FAA08910BD000060
:1016E0000030014000380040003C00400034004021
:1016F0004C69627261726965735C53544D33324652
:101700003478785F5374645065726970685F4472AE
:10171000697665725C7372635C73746D33326634C0
:1017200078785F7370692E630000000070B504461E
:101730000D460B4884420BD00A48844208D00A4820
:10174000844205D00948844202D0B4F1402F00D130
:1017500004E040F21A3106A000F076FAA58170BDCF
:101760000030014000380040003C004000340040A0
:101770004C69627261726965735C53544D333246D1
:101780003478785F5374645065726970685F44722E
:10179000697665725C7372635C73746D3332663440
:1017A00078785F7370692E630000000070B505469D
:1017B0000C4600265448854205D05448854202D044
:1017C0005348854200D104E04FF4837151A000F0EA
:1017D0003BFA208858B12088B0F5806F07D0208868
:1017E000B0F5004F03D02088B0F5404F00D104E0A1
:1017F00040F2091147A000F027FA6088B0F5827F17
:1018000001D0608800B904E04FF4857141A000F078
:101810001BFAA088B0F5006F01D0A08800B904E0E1
:1018200040F20B113BA000F00FFAE08810B1E08805
:10183000022800D104E04FF4867136A000F004FACB
:10184000208910B12089012800D104E040F20D1157
:1018500030A000F0F9F96089B0F5007F01D060890F
:1018600000B904E04FF487712AA000F0EDF9A089D7
:10187000A0B1A089082811D0A08910280ED0A08975
:1018800018280BD0A089202808D0A089282805D0A6
:10189000A089302802D0A089382800D104E040F285
:1018A0000F111CA000F0D0F9E08910B1E089802868
:1018B00000D104E04FF4887116A000F0C5F9208A29
:1018C000012800DB04E040F2111112A000F0BCF985
:1018D0002E8806F44156208861880843A188084371
:1018E000E18808432189084361890843A1890843A5
:1018F000E189084306432E80A88B4FF2FF71084010
:10190000A883208A288270BD003001400038004042
:10191000003C00404C69627261726965735C5354AB
:101920004D3332463478785F537464506572697011
:10193000685F4472697665725C7372635C73746D20
:101940003332663478785F7370692E63000000006C
:1019500070B5002400BF1EE000F02EF9054604EB30
:1019600044000E4901EB80008068281A04EB440112
:101970000A4A02EB8101C98888420AD304EB440079
:10198000114601EB8000856004EB440152F8210010
:101990008047601CC4B2072CDED370BD000000205D
:1019A000002000BF1FE000EB4001104A02EB810164
:1019B00089884FF47A7292FBF1F100EB40020B4BF5
:1019C00003EB8202D18000EB40011A4602EB810159
:1019D000C988012905DA012100EB400203EB8202EC
:1019E000D180411CC8B20728DDD370470000002019
:1019F0000CB50020019000903448006840F480301D
:101A00003249086000BF3148006800F4003000909F
:101A10000198401C0190009818B90198B0F5A06F8A
:101A2000F1D12A48006800F4003010B10120009084
:101A300001E0002000900098012846D12348403062
:101A4000006840F08050214940310860204800681B
:101A500040F480401E4908601C48083000681B495B
:101A6000083108600846006840F4004008600846F5
:101A7000006840F4A05008601648091F0860081F5D
:101A8000006840F08070091F086000BF0F480068C0
:101A900000F000700028F9D040F205600E4908609F
:101AA0000A480830006820F003000849083108603F
:101AB0000846006840F00200086000BF0348083094
:101AC000006800F00C000828F8D10CBD0038024076
:101AD0000070004008544007003C024010B5044626
:101AE000042C01D0601D00B903E0DC210BA000F044
:101AF000ABF8042C08D14FF0E020006940F004005E
:101B00004FF0E021086107E04FF0E020006920F08D
:101B100004004FF0E021086110BD00004C696272C2
:101B200061726965735C53544D3332463478785F23
:101B30005374645065726970685F44726976657247
:101B40005C7372635C6D6973632E63007FB5684676
:101B5000FFF734FC4FF47A710198B0FBF1F4E4081C
:101B60002146B1F1807F00D31DE021F07F40401E6F
:101B70004FF0E022506150170F22002807DA1307B8
:101B80001E0E0B4B00F00F052D1F5E5503E01307D3
:101B90001D0E084B1D5400BF00204FF0E022906145
:101BA0000720106100BF6FF00400FFF797FF7FBDB3
:101BB00018ED00E000E400E0014800687047000014
:101BC0005800002010B505480068401C0349086013
:101BD00000F044F8FFF7B4F810BD000054000020F6
:101BE00010B51548006840F47000134908601348A8
:101BF000006840F001001149086000200F490831D9
:101C000008600E4800680E4908400C4908600D48FD
:101C1000091D0860081F006820F48020091F086063
:101C2000002006490C310860FFF7E2FE4FF000602B
:101C300001498039086010BD88ED00E0003802409D
:101C4000FFFFF6FE1030002400BFFEE7FEF749FB61
:101C5000FFF7A6FE01E0FFF77BFEFCE70248006805
:101C6000401C014908607047580000204FF0407048
:101C7000E1EE100A70470000981C000800000020E8
:101C8000A0000000C4010008381D0008A0000020CA
:101C9000601D0000E0010008050E0008E8030000D8
:101CA00000000000730E0008F401000000000000B6
:101CB0006D0E0008C800000000000000490E00087A
:101CC0006400000000000000750E000832000000F3
:101CD000000000006F0E000814000000000000006B
:101CE000710E00080200000000000000000000006B
:101CF0000000000000001400000000000000A041EF
:101D000000000000000000000000000000000000D3
:101D100000000000000000000000000000000000C3
:101D200000000000000000000000000001020304A9
:081D3000010203040607080983
:040000050800018965
:00000001FF
