:020000040800F2
:10000000900C002029020008310200083302000889
:10001000350200083702000839020008000000001D
:100020000000000000000000000000003B0200088B
:100030003D020008000000003F02000849060008D9
:10004000430200084302000843020008430200087C
:10005000430200084302000843020008430200086C
:10006000430200084302000843020008430200085C
:10007000430200084302000843020008430200084C
:10008000430200084302000843020008430200083C
:10009000430200084302000843020008430200082C
:1000A000430200084302000843020008430200081C
:1000B000430200084302000843020008430200080C
:1000C00043020008430200084302000843020008FC
:1000D00043020008430200084302000843020008EC
:1000E00043020008430200084302000843020008DC
:1000F00043020008430200084302000843020008CC
:1001000043020008430200084302000843020008BB
:1001100043020008430200084302000843020008AB
:10012000430200084302000843020008430200089B
:10013000430200084302000843020008430200088B
:10014000430200084302000843020008430200087B
:10015000430200084302000843020008430200086B
:10016000430200084302000843020008430200085B
:10017000430200084302000843020008430200084B
:10018000430200084302000800F002F800F03CF8C7
:100190000AA090E8000C82448344AAF10107DA45E2
:1001A00001D100F031F8AFF2090EBAE80F0013F0F8
:1001B000010F18BFFB1A43F0010318473C0500006C
:1001C0005C050000103A24BF78C878C1FAD85207FD
:1001D00024BF30C830C144BF04680C6070470000C1
:1001E0000023002400250026103A28BF78C1FBD840
:1001F000520728BF30C148BF0B6070471FB500F0E1
:1002000075FA1FBD10B510BD00F031F81146FFF7AB
:10021000F5FF00F05DFA00F04FF803B4FFF7F2FFCE
:1002200003BC00F053F80000094880470948004724
:10023000FEE7FEE7FEE7FEE7FEE7FEE7FEE7FEE796
:10024000FEE7FEE704480549054A064B70470000F3
:10025000650600088901000890000020900C00202D
:100260009004002090040020704770477047754646
:1002700000F028F8AE4605006946534620F0070016
:10028000854618B020B5FFF7DDFFBDE820404FF0F0
:1002900000064FF000074FF000084FF0000B21F070
:1002A0000701AC46ACE8C009ACE8C009ACE8C0093D
:1002B000ACE8C0098D4670470446AFF30080204685
:1002C000FFF7ABFF004870473000002001491820BD
:1002D000ABBEFEE726000200704710B54FF4806009
:1002E00000F022F800F07AF9002010BD002014E0A0
:1002F0000B4931F8101000EE101AB8EE400A094907
:1003000001EB8001D1ED000AB4EEE00AF1EE10FA43
:1003100001D200BF00BF411CC8B20428E8DB70470F
:10032000180000200800002010B50446B4F5E06F66
:100330000BD0B4F5C06F08D0B4F5A06F05D0B4F5FC
:10034000806F02D0B4F5407F00D103E0732104A098
:1003500000F0BCF90E4820430E49086010BD0000B3
:100360004C69627261726965735C53544D333246F5
:100370003478785F5374645065726970685F447252
:10038000697665725C7372635C6D6973632E63007A
:100390000000FA050CED00E0F0B500210022002479
:1003A000022500260223324F3F6807F00C0121B1DD
:1003B000042905D0082937D105E02E4F076036E023
:1003C0002D4F076033E02A4F3F1F3F68C7F3805629
:1003D000274F3F1F3F6807F03F036EB1264FB7FB23
:1003E000F3F7DFF88CC0ACF1040CDCF800C0CCF300
:1003F000881C07FB0CF40CE01E4FB7FBF3F7DFF88B
:1004000070C0ACF1040CDCF800C0CCF3881C07FB16
:100410000CF4174F3F1F3F68C7F301477F1C7D0057
:10042000B4FBF5F7076002E0124F076000BF00BFA2
:100430000F4F3F6807F0F0010909104F7A5C076819
:10044000D74047600A4F3F6807F4E051890A0B4FD5
:100450007A5C4768D7408760054F3F6807F4604182
:10046000490B064F7A5C4768D740C760F0BD000073
:10047000083802400024F40000127A002000002016
:100480000CB50020019000903448006840F48030A2
:100490003249086000BF3148006800F40030009025
:1004A0000198401C0190009818B90198B0F5A06F10
:1004B000F1D12A48006800F4003010B1012000900A
:1004C00001E0002000900098012846D123484030E8
:1004D000006840F0805021494031086020480068A1
:1004E00040F480401E4908601C48083000681B49E1
:1004F000083108600846006840F40040086008467B
:10050000006840F4A05008601648091F0860081FE2
:10051000006840F08070091F086000BF0F48006845
:1005200000F000700028F9D040F205600E49086024
:100530000A480830006820F00300084908310860C4
:100540000846006840F00200086000BF0348083019
:10055000006800F00C000828F8D10CBD00380240FB
:100560000070004008544007003C024010B50446AB
:10057000042C01D0601D00B903E0DC210BA000F0C9
:10058000A5F8042C08D14FF0E020006940F00400E9
:100590004FF0E021086107E04FF0E020006920F013
:1005A00004004FF0E021086110BD00004C69627248
:1005B00061726965735C53544D3332463478785FA9
:1005C0005374645065726970685F447269766572CD
:1005D0005C7372635C6D6973632E63007FB56846FC
:1005E000FFF7DAFE4FF47A710198B0FBF1F4E408FA
:1005F0002146B1F1807F00D31DE021F07F40401EF5
:100600004FF0E022506150170F22002807DA13073D
:100610001E0E0B4B00F00F052D1F5E5503E0130758
:100620001D0E084B1D5400BF00204FF0E0229061CA
:100630000720106100BF6FF00400FFF797FF7FBD38
:1006400018ED00E000E400E010B505480068401C2B
:100650000349086000F042F8FFF748FE10BD0000B3
:100660000000002010B51548006840F470001349E0
:1006700008601348006840F001001149086000203C
:100680000F49083108600E4800680E4908400C49BF
:1006900008600D48091D0860081F006820F48020CC
:1006A000091F0860002006490C310860FFF7E8FECA
:1006B0004FF0006001498039086010BD88ED00E00E
:1006C00000380240FFFFF6FE1030002400BFFEE7B6
:1006D00010B5FFF702FE002010BD000002480068C0
:1006E000401C014908607047040000204FF0407032
:1006F000E1EE100A70470000180700080000002013
:1007000030000000C4010008480700083000002045
:10071000600C0000E0010008000000000000000084
:10072000000000000000A0410000000000000000E8
:1007300000000000000000000000000001020304AF
:08074000010203040607080989
:040000050800018965
:00000001FF
